:060000000A128A1110280B
:10000800FE00030E83160313AB000A08AC007F083A
:10001800AD000A128A15472F0A128A11132883166F
:1000280003130A128A11F9270A128A11BF00B301B1
:10003800B401B501B601B701B801B901BA01BB01F4
:10004800BC01BD01BE0183010A128A15392C831235
:1000580003133D088039C7003D08C2004207CD00A0
:10006800BC1F3728382839284D144D0803193D2856
:100078003E284D284D0A031D422843284B280030AE
:10008800BD000030BC000030BB000030BA00BC1717
:1000980055280030BD000030BC000030BB000030E7
:1000A800BA0041088039C2004208C7064108C200A8
:1000B8004207CC00C01F6128622863284C144C08F2
:1000C80003196728682877284C0A031D6C286D28AF
:1000D80075280030C1000030C0000030BF0000307B
:1000E800BE00C0177F280030C1000030C0000030BB
:1000F800BF000030BE004C080319832884288928D3
:100108004D08031D8828892892280030BD0000303A
:10011800BC000030BB000030BA006F2B3A08F0007A
:1001280040080A128A1512240A128A1171088312C9
:100138000313D3007008D2005208C200C301C401DF
:10014800C5014508CB004408CA004308C900420855
:10015800C8005308C200C301C401C5014508D10045
:100168004408D0004308CF004208CE003B08F00006
:100178003F080A128A1512240A128A11710883127A
:100188000313D3007008D2005208C200C301C4018F
:10019800C5014208C807430803110318013E0319A3
:1001A800D628C907440803110318013E0319DD289E
:1001B800CA07450803110318013E0319E428CB07B1
:1001C8005308C200C301C401C5014208CE07430851
:1001D80003110318013E0319F228CF07440803113D
:1001E8000318013E0319F928D0074508031103181D
:1001F800013E03190029D1073C08F0003E080A1205
:100208008A1512240A128A11710883120313D30063
:100218007008D2005208C200C301C401C5014208D7
:10022800C807430803110318013E03191C29C9070D
:10023800440803110318013E03192329CA07450876
:1002480003110318013E03192A29CB075308C200DA
:10025800C301C401C5014208CE07430803110318AE
:10026800013E03193829CF07440803110318013E3A
:1002780003193F29D007450803110318013E031944
:100288004629D1070830C2000310C80DC90DCA0D90
:10029800CB0DC20B48293B08F0003E080A128A150C
:1002A80012240A128A11710883120313D3007008EA
:1002B800D2005208C2005308C300C401C501420855
:1002C800C807430803110318013E03196C29C9071D
:1002D800440803110318013E03197329CA07450886
:1002E80003110318013E03197A29CB073A08F000D5
:1002F8003F080A128A1512240A128A1171088312F9
:100308000313D3007008D2005208C2005308C30078
:10031800C401C5014208C807430803110318013E78
:1003280003199729C907440803110318013E031943
:100338009E29CA07450803110318013E0319A52978
:10034800CB070830C2000310C80DC90DCA0DCB0D6C
:10035800C20BA7293A08F0003E080A128A1512248F
:100368000A128A11710883120313D3007008D2008D
:100378005208C2005308C300C401C5014208C80797
:10038800430803110318013E0319CB29C907440880
:1003980003110318013E0319D229CA07450803119E
:1003A8000318013E0319D929CB073B08F000400880
:1003B8000A128A1512240A128A1171088312031369
:1003C800D3007008D2005208C2005308C300C40109
:1003D800C5014208CE07430803110318013E03195B
:1003E800F629CF07440803110318013E0319FD2914
:1003F800D007450803110318013E0319042AD10741
:100408003C08F0003F080A128A1512240A128A11C1
:10041800710883120313D3007008D2005208C20077
:100428005308C300C401C5014208CE07430803119D
:100438000318013E0319212ACF07440803110318A2
:10044800013E0319282AD007450803110318013E65
:1004580003192F2AD1073C08F00040080A128A1510
:1004680012240A128A11710883120313D300700828
:10047800D2005208C2005308C300C401C5010830A5
:100488000310C20DC30DC40DC50DFF3E031D442A44
:100498004208CE07430803110318013E0319552AE1
:1004A800CF07440803110318013E03195C2AD0073B
:1004B800450803110318013E0319632AD1074808A8
:1004C800C2004908C3004A08C4004B08C5001830D8
:1004D8000310C50CC40CC30CC20CFF3E031D6C2AD0
:1004E8004208CE07430803110318013E03197D2A69
:1004F800CF07440803110318013E0319842AD007C3
:10050800450803110318013E03198B2AD107083047
:10051800C2000310C80DC90DCA0DCB0DC20B8D2A20
:100528004D084C07C200C301C30D4208823ED200E9
:1005380043080318013EFF3ED300BF2A0130C20022
:100548000310CE0DCF0DD00DD10DC20BA42ACB1F99
:10055800AE2AAF2AB02A4E140130C2000310C80DCB
:10056800C90DCA0DCB0DC20BB22AFF30D207031832
:10057800D30AFF30D307D01FC22AC32AA22ACC012C
:10058800CB1FC72AC82AE42AFF304805C200FF301B
:100598004905C300FF304A05C4007F304B05C5003C
:1005A80045084404430442040319DB2ADC2ADF2AF1
:1005B800CC01CC0AE42A4E1CE22AE32AE42ADC2AEB
:1005C8004C080319E82AE92A1A2B0130CE07003013
:1005D80003180130CF07003003180130D00700306E
:1005E80003180130D107511CFA2AFB2A1A2B4E088E
:1005F800C2004F08C3005008C4005108C5000130AC
:10060800C600450DC50CC40CC30CC20CC60B052B8B
:100618004508D1004408D0004308CF004208CE0066
:100628000130D2070318D30A0030D3075308803AA1
:10063800FF0080307F02031D232BFF305202031C72
:10064800262B272B322B7F3083120313D1008030C7
:10065800D0000030CF000030CE00632B831203138C
:100668005308803AFF0080307F02031D3D2B013084
:1006780052020318402B412B4D2B003083120313D9
:10068800D1000030D0000030CF000030CE00C701CC
:10069800632B831203135208CD00FF30CE05FF30C1
:1006A800CF057F30D0050030D1054D1C5C2B5D2B6C
:1006B8005E2BD0174D08C2000310420CD10047082A
:1006C800C2004208D1045108BD005008BC004F08C0
:1006D800BB004E08BA00080083120313570880397C
:1006E800E4005708DC005C07E600D61F7C2B7D2B56
:1006F8007E2B661466080319822B832B932B660ABC
:10070800031D872B882B902B0030D7000030D60094
:100718000030D5000030D400D617D7019B2B00300D
:10072800D7000030D6000030D5000030D4005B0878
:100738008039E500650864060319A32BA42BA52BB3
:1007480064175B08DC005C07E500DA1FAC2BAD2BF7
:10075800AE2B651465080319B22BB32BC32B650A9E
:10076800031DB72BB82BC02B0030DB000030DA009C
:100778000030D9000030D800DA17DB01CB2B00306D
:10078800DB000030DA000030D9000030D8006608FD
:1007980065020318D02BD12BF72B641FD42BD52B34
:1007A800D92B8030DC005C08E4066608E7006508A1
:1007B800E6006708E5005408E7005808D400670811
:1007C800D8005508E7005908D5006708D900560829
:1007D800E7005A08D6006708DA005708E7005B0800
:1007E800D7006708DB00E7016508DC00DD015D086C
:1007F800DF0066085C02DE00031CDF035F08803A46
:10080800FF0080307F02031D0B2C1A305E02031C90
:100818000E2C0F2C462C831203135708560455042C
:100828005404031D182C1A2C01301B2C0030E7002F
:100838000030D7000030D6000030D5000030D4009A
:100848006508E6004E2C671C2A2C2B2C322C6708D6
:10085800DC0003105C0C0138E700342C0310E70CB3
:10086800541C372C382C392CE7170130DC00570D75
:10087800D70CD60CD50CD40CDC0B3B2C0130DC008F
:100888005C08E6078312031365086602031C4D2CF7
:100898004E2C272C641B512C522C9B2C6608031DB4
:1008A800562C572C602C0030D7000030D600003072
:1008B800D5000030D400C72D5808D40759080311B3
:1008C8000318013E0319692CD5075A0803110318A8
:1008D800013E0319702CD6075B0803110318013E6B
:1008E8000319772CD707571C7A2C7B2C4F2D671CA4
:1008F8007E2C7F2C862C6708DC0003105C0C0138EA
:10090800E700882C0310E70C541C8B2C8C2C8D2CA6
:10091800E7170130DC00570DD70CD60CD50CD40CDA
:10092800DC0B8F2C0130DC005C08E6074F2D5708E4
:10093800803AFF005B08803A7F02031DAD2C5A08FD
:100948005602031DAD2C59085502031DAD2C58083D
:1009580054020318B02CB12C092DFF30DC00FF30F5
:10096800DD00FF30DE00FF30DF005808E0005908E6
:10097800E1005A08E2005B08E3005408E002550869
:10098800031C550FC82CC92CE1025608031C560F2E
:10099800CE2CCF2CE2025708031C570FD42CD52C91
:1009A800E3026008DC0761080318610FDC2CDD2C0A
:1009B800DD0762080318620FE22CE32CDE076308E8
:1009C8000318630ADF075F08D7005E08D6005D08D2
:1009D800D5005C08D4008030DC005C08E406E70938
:1009E800E70A6708031DF92CFA2C172D0130D407E4
:1009F800003003180130D507003003180130D6073E
:100A0800003003180130D707172D5808D4025908A9
:100A1800031C590FD5025A08031C5A0FD6025B084B
:100A2800031C5B0FD7025708560455045404031DD2
:100A38001E2D1F2D4B2D6708031D232D242D4B2DF7
:100A48000030D7000030D6000030D5000030D40088
:100A5800C72D0130DC000310D40DD50DD60DD70DF0
:100A6800DC0B2F2DE71F392D3A2D3B2D5414671C15
:100A78003E2D3F2D422D0314E70D442D0310E70DA5
:100A880066080319482D492D4B2D0130E602D61F63
:100A98004E2D4F2D2D2DE501E71F532D542D622D81
:100AA80067087F390319592D5A2D5D2DE501E50A8F
:100AB800622D541C602D612D622D5A2D6508031975
:100AC800662D672D9B2D0130D407003003180130A7
:100AD800D507003003180130D6070030031801305D
:100AE800D707571C782D792D9B2D5408DC00550805
:100AF800DD005608DE005708DF000130E0005F0D1A
:100B0800DF0CDE0CDD0CDC0CE00B832D5F08D7005E
:100B18005E08D6005D08D5005C08D400660A031993
:100B2800962D972D9B2D0130DC005C08E607660AA0
:100B380003199F2DA02DA52D6608031DA42DA52DF5
:100B4800B32D0030D7000030D6000030D50000307B
:100B5800D4006608031DB12DB22DB32DE401661C27
:100B6800B62DB72DB92DD617BD2D7F30DC005C080A
:100B7800D6056608DC0003105C0CD700E41FC52D01
:100B8800C62DC72DD71708008312031327088039ED
:100B9800B1002708A8002807B800A61FD42DD52D16
:100BA800D62D381438080319DA2DDB2DEB2D380A29
:100BB800031DDF2DE02DE82D0030A7000030A60032
:100BC8000030A5000030A400A617A701F32D0030BF
:100BD800A7000030A6000030A5000030A4002308BC
:100BE8008039A8002808B1062308A8002807B900FA
:100BF800A21FFF2D002E012E391439080319052EC6
:100C0800062E162E390A031D0A2E0B2E132E00301F
:100C1800A3000030A2000030A1000030A000A217FD
:100C2800A3011E2E0030A3000030A2000030A10056
:100C38000030A0002308220421042004031D252ECF
:100C4800262E3F2E0030A7000030A6000030A50059
:100C58000030A4008030A6047F30A7043108A80023
:100C68002808A7042708A3002608A2002508A10031
:100C78002408A0009A2F3808031D432E442E4D2E19
:100C88000030A3000030A2000030A1000030A00016
:100C98009A2F3808A800A9012908AB0039082802AA
:100CA800AA00031CAB032A087F3EB2002B080318D6
:100CB800013E003EB3002708B0002608AF00250813
:100CC800AE002408AD000030A7000030A6000030B8
:100CD800A5000030A4000030B7000030B600003096
:100CE800B5000030B400B901C32E390803197D2EB0
:100CF8007E2E9E2E0130A8000310AD0DAE0DAF0D57
:100D0800B00DA80B802E0130A8000310A40DA50D6E
:100D1800A60DA70DA80B892EB71F932E942E952EDE
:100D280024140130A8000310B40DB50DB60DB70D8D
:100D3800A80B972E23083002031DAC2E22082F0281
:100D4800031DAC2E21082E02031DAC2E20082D02F7
:100D5800031CAF2EB02EBF2E37172008AD02210876
:100D6800031C210FAE022208031C220FAF02230826
:100D7800031C230FB0020130A8002808B9071A3055
:100D88003902031CC82EC92E792E30082F042E04D0
:100D98002D040319D02ED12EF02E3414F02E01304C
:100DA800A8000310A40DA50DA60DA70DA80BD52E00
:100DB800B71FDF2EE02EE12E24140130A800031007
:100DC800B40DB50DB60DB70DA80BE32EFF30B20765
:100DD8000318B30AFF30B307A61FF32EF42ED32E41
:100DE800B901B71FF82EF92E152FFF303405A800CA
:100DF800FF303505A900FF303605AA007F303705DA
:100E0800AB002B082A042904280403190C2F0D2FE2
:100E1800102FB901B90A152F241C132F142F152FC1
:100E28000D2F39080319192F1A2F4B2F0130A4073A
:100E3800003003180130A507003003180130A60759
:100E4800003003180130A707271C2B2F2C2F4B2FFE
:100E58002408A8002508A9002608AA002708AB002E
:100E68000130AC002B0DAB0CAA0CA90CA80CAC0BD8
:100E7800362F2B08A7002A08A6002908A50028084D
:100E8800A4000130B2070318B30A0030B3073308CF
:100E9800803AFF0080307F02031D542FFF3032025A
:100EA800031C572F582F662FFF3083120313B200ED
:100EB8000030B3000030A7000030A6000030A500C5
:100EC8000030A400831203133308803AFF008030F7
:100ED8007F02031D712F013032020318742F752F02
:100EE800822F83120313B201B3010030A700003030
:100EF800A6000030A5000030A400B101831203133E
:100F08003208B800381C892F8A2F8C2FA617902FEB
:100F18007F30A8002808A6053808A8000310280C68
:100F2800A7003108A8002808A704362E0800831651
:100F38000313B0008312031397019D01AF2F7D3077
:100F48009200C12FBC309200C12FFA309200C12FFD
:100F58003F309200C12F831603132F08003A03195C
:100F6800B62FAC2F2E08023A0319A32F013A031902
:100F7800A62F073A0319A92FAC2F3003031DC52F3D
:100F8800C62FCF2F3F308312031397051708F03968
:100F98000C389700EE2F02303006031DD42FD52FC2
:100FA800DC2F831203131D08F0390C389D00EE2F37
:100FB80003303006031DE12FE22FEE2F3F3083125E
:100FC800031397051708F0390C3897001D08F039F6
:100FD8000C389D0083128C100330920412158C1C5F
:0C0FE800F62FF72FF32F8C100800FA34BE
:101794000B118B16831203130C13831603130C17EC
:1017A4000B178B1708008316031381128111011084
:1017B400811001110B113F088312031381000800EB
:1017C40083160313AE008130831203139F00831624
:1017D40003132E0C031C9F1303189F179F121F1231
:1017E4000800073083160317880089010730831621
:1017F40003138500831203138501831603138601E3
:1018040083120313860183160313870183120313C0
:1018140087018316031388018312031388010800C8
:10182400F800F401F5017008F200F3017208F60003
:101834007308F700781C1F2C202C262C7608F4073C
:101844000318F50A7708F50701300310F60DF70DB4
:10185400FF3E031D272C0310F80C7808031D332CBE
:10186400342C1C2C7508F1007408F00008000A12CE
:101874008A15F3230A128A150A128A15CA230A1230
:101884008A150A128A15D5230A128A15043083167A
:101894000313AE000030AF0003300A128A119B27F5
:1018A4000A128A1500300A128A15E2230A128A15CE
:1018B4000A128A1569240A128A1583160313370833
:1018C4008312031386005A2C0A128A1110288312D9
:1018D40003139F1C6E2C6F2C702CA62C83160313E1
:1018E4003E08031D762C772C802C0030AE00AF0010
:1018F4000A128A15EC240A128A159F2C3E03031D32
:10190400842C852C8F2C0130AE000030AF000A12DD
:101914008A15EC240A128A159F2C02303E06031DF8
:10192400942C952C9F2C0230AE000030AF000A128C
:101934008A15EC240A128A159F2C831203139F180C
:10194400A42CA52C9F2C9F140800F4007403031DE1
:10195400AC2CAD2CC42C7108F3007008F2000310F9
:10196400F30CF20C0310F30CF20C72088312031341
:10197400950070080339F200F20E17087206CF3989
:101984007206970002307406031DC92CCA2CEB2C76
:101994007108F3007008F2000310F30CF20C03104A
:1019A400F30CF20C7208831203139B0070080139C4
:1019B400F200F20E1D087206EF3972069D007008DF
:1019C4000239F200F20EF20D1D087206DF397206BA
:1019D4009D000800831603132E080139B000B00DD2
:1019E400B00D831203131F08831603133006FB394B
:1019F4003006831203139F00831603132F08B100CC
:101A04002E08B000310DB10CB00C30080139B20011
:101A1400B20DB20DB20D831203131F088316031304
:101A24003206F7393206831203139F008316031319
:101A34002F08B1002E08B000310DB10CB00C310DDF
:101A4400B10CB00C30080139B200B20E831203138A
:101A54001F08831603133206EF3932068312031369
:101A64009F00831603132F08B1002E08B000310D18
:101A7400B10CB00C310DB10CB00C310DB10CB00C7B
:101A840030080139B200B20EB20D831203131F08DD
:101A9400831603133206DF393206831203139F00C1
:101AA40008000310831203136A0D6B0D83160313CE
:101AB400A1002108031D5F2D602D6B2D00308312C2
:101AC4000313EB000030EA000030E9000030E800C6
:101AD400E02D831203136808EC006908ED006A081E
:101AE400EE006B08EF001F300310EF0CEE0CED0C52
:101AF400EC0CFF3E031D762D6C0883160313A00027
:101B040083120313EA17FF30E805FF30E905FF30BD
:101B1400EA050030EB05963083160313A102A11FDA
:101B2400942D952DB32D2108803A973E03189B2DB3
:101B34009C2D9D2D602D0130031083120313EB0C9B
:101B4400EA0CE90CE80CFF3E031D9E2D0130EC006D
:101B54006C0883160313A107031DB12DB22D9D2D0F
:101B6400CE2D20302102031CB82DB92DC92D602D96
:101B7400013083120313EC000310E80DE90DEA0DA4
:101B8400EB0DEC0BBE2D013083160313A1022108CB
:101B9400031DCD2DCE2DBA2D20080319D22DD32D02
:101BA400E02D83120313E809E909EA09EB09E80ABD
:101BB4000319E90A0319EA0A0319EB0A0800831650
:101BC4000313A8002408F0002508F100F201F30132
:101BD40000300A128A158F260A128A157308831296
:101BE4000313DB007208DA007108D9007008D8000A
:101BF4008316031324082602F0002508031C250A73
:101C04002702F100F201F30100300A128A158F262F
:101C14000A128A15730883120313A7007208A60018
:101C24007108A5007008A400831603132208230278
:101C3400F000F101031CF103F201F11BF20372083D
:101C4400F30001300A128A158F260A128A157308C6
:101C540083120313A3007208A2007108A100700884
:101C6400A0000A128A11C8250A128A1583120313C6
:101C74002308C1002208C0002108BF002008BE00BC
:101C84008316031322082802F000F101031CF10358
:101C9400F201F11BF2037208F30001300A128A15F3
:101CA4008F260A128A15730883120313BD00720863
:101CB400BC007108BB007008BA000A128A112B20FC
:101CC4000A128A15831203133D08D7003C08D60074
:101CD4003B08D5003A08D4000A128A1170230A126C
:101CE4008A15831203135708EB005608EA005508B7
:101CF400E9005408E8000A128A1553250A128A15C5
:101D040083120313690883160313A30083120313B6
:101D1400680883160313A2000800F8007808031962
:101D2400942E952EA92EF31F982E992EA92E700964
:101D3400FA007109FB007209FC007309FD00FA0A3C
:101D44000319FB0A0319FC0A0319FD0AB12E7308CF
:101D5400FD007208FC007108FB007008FA007308AB
:101D6400720471047004031DB82EB92EC22E003003
:101D7400F3000030F2000030F1000030F000462F94
:101D84009630F900D22E0130F4007408F9070130BE
:101D94000310FD0CFC0CFB0CFA0CFF3E031DCA2EB9
:101DA400FE307D05031DD72ED82EC52EF42E01300E
:101DB400F4007408F9070130FA0700300318013001
:101DC400FB07003003180130FC0700300318013012
:101DD400FD0701300310FD0CFC0CFB0CFA0CFF3E5C
:101DE400031DEC2EFF307D05031DF92EFA2ED92E8E
:101DF400062F0130F9020130F4000310FA0DFB0D37
:101E0400FC0DFD0DF40BFF2EFC1B092F0A2F102FC8
:101E14000230790203180F2F102FFB2E7918132F7D
:101E2400142F1C2FFF30FA05FF30FB057F30FC0513
:101E3400FF30FD050310F90C7908F400F501F601F3
:101E4400F70118300310F40DF50DF60DF70DFF3EF4
:101E5400031D242F7408FA047508FB047608FC0497
:101E64007708FD0478080319382F392F3E2FF31F04
:101E74003C2F3D2F3E2FFD177D08F3007C08F20018
:101E84007B08F1007A08F0000800831203130C1F8A
:101E94004C2F4D2FD02F831603133E08031D532FB1
:101EA400542F852F831203131E0883160313A900CE
:101EB400AA012908BB002A08BC00A201FF30A30024
:101EC400A030A4000030A5008A30A6000230A7008C
:101ED4003B080A128A15E1250A128A158316031390
:101EE4002308B6002208B5003608F1003508F000D2
:101EF40001300A128A15A7240A128A1583160313BD
:101F0400BE01BE0ACD2F3E03031D892F8A2FBB2F8E
:101F1400831203131E0883160313A900AA012908B8
:101F2400B9002A08BA00A201FF30A300A030A4001F
:101F34000030A5008A30A6000230A70039080A1232
:101F44008A15E1250A128A15831603132308B4009F
:101F54002208B3003408F1003308F00002300A12FA
:101F64008A15A7240A128A15023083160313BE00A9
:101F7400CD2F02303E06031DC02FC12FCD2F83125B
:101F840003131E0883160313A900AA012908B70026
:101F94002A08B800BE01831203130C130B1DD32FA0
:101FA400D42FF52F013083160313A9002908BD0788
:101FB4003D08A900AA012A083802031DE32F2908B5
:101FC4003702031CE62FE72FEB2F83120313871529
:101FD400EE2F8312031387110B11831603133F088B
:101FE400831203138100831603132D08FF002C08AA
:0C1FF4008A002B0E8300FE0E7E0E0900FA
:08400000FF3FFF3FFF3FFF3FC0
:04400E00D420FF3F7C
:00000001FF
